:100000000C9414040C9431040C9431040C943104B9
:100010000C9431040C9431040C9431040C9431048C
:100020000C9431040C9431040C94BE0E0C94000E0C
:100030000C94971C0C9431040C9431040C943104EE
:100040000C9431040C9431040C9431040C9431045C
:100050000C9431040C94C80F0C9431040C943104AA
:100060000C9431040C9431040C9431040C9431043C
:100070000C9431040C9431040C9431040C9431042C
:100080000C9431040C9431040C9431040C9431041C
:100090000C9431040C9431040C9431040C9431040C
:1000A0000C9431040C9431040C943104180C3F0C62
:1000B000E80D3F0CE80D8B0CAE0CE80DA30DB30D55
:1000C000E010EE10F310F810FD10021107110C11E2
:1000D000111116111B112211241126112811A01122
:1000E000A011A011A011A011A011081208123B121A
:1000F0003B12B812D713D713D713D6124A135B1378
:100100005B1342214F2106206B215B21692169216C
:1001100067216921812286229022842289228E22CF
:100120008C2238243B243E244124442447244A245E
:1001300005010980A101850319012AB700150126CF
:10014000B700950175108100C0050C0901A101855A
:100150000419012AA002150126A00295017510813B
:1001600000C005010906A1018506050719E029E778
:10017000150025019508750181020507190029EF71
:100180001500250195F07501810205081901290561
:10019000950575019102950175039101C00660FFF7
:1001A0000961A1010962150026FF009520750881EB
:1001B000020963150026FF00952075089102C0050D
:1001C000010906A101050719E029E7150025019598
:1001D000087501810295017508810105071900293B
:1001E000FF150026FF009506750881000508190116
:1001F00029051500250195057501910295017503E5
:100200009101C009025B00030100A0FA090400008B
:100210000103010100092111010001224400070529
:100220008103080001090401000203000000092104
:1002300011010001222200070582032000010705A9
:10024000030320000109040200010300000009214A
:1002500011010001226D0007058403200001120135
:1002600000020000000897327649010001020001F7
:1002700020034500720067006F0044006F007800A3
:10028000200045005A00200047006C006F007700F6
:10029000000028035A00530041002000540065006C
:1002A000630068006E006F006C006F0067007900EB
:1002B00020004C0061006200730000000403090488
:1002C000290035022B00E000E20000001E001400AF
:1002D00004001D00260281521F001A0016001B0098
:1002E0002702E10020000800070006002F012C0073
:1002F0002100150009001900300182522200170068
:100300000A000500000001002300280000002A0068
:100310000000210A2400280000002A000000220A10
:1003200025001C000B00110000003A0226001800F6
:100330000D0010002F002C0927000C000E003600C5
:1003400030002C002D0012000F0037002F02E500B6
:100350002E00130033003800300281523500310284
:1003600034003100E700000001000100010001003D
:10037000010000001E01010001001D080100010034
:100380001F011A0816081B080100010020010100C6
:100390000708060850002C0821011508090819084B
:1003A0004F210100010001000A08050800000100BA
:1003B0000100010000000100000001000100010037
:1003C000000001000000010001004B004A004E0047
:1003D0000000010001000401500050042F0801003A
:1003E000010052005100510030082A0001000801AC
:1003F0004F004F0401000100010001004D00010009
:1004000001000100350301000100310A0100000074
:100410000100010001000100010000003A0001009C
:1004200001000100010001003B000100010001008A
:10043000010001003C000100010001000100010079
:100440003D00010001000100010001003E0001002B
:1004500001000100000001003F0001000000010058
:100460000000010040000100000001000000010048
:1004700041001C0D180D0100000001004200090D93
:10048000500D0A0DA80001004300520D060D510D3C
:10049000AA00010044002E0D4F0D2D0DA9000100F2
:1004A0004500010001000100010001000100010000
:1004B0000100010001000000004434540074648411
:1004C00000554565008575950036264600665676CA
:1004D000009686A6003727470077678700382848A8
:1004E000008878980039294900695979009989A9C3
:1004F000003A2A4A006A5A7A003B2B4B006B5B7B1E
:10050000004C3C5C007C6C8C005D4D6D008D7D9DD5
:10051000003E2E4E006E5E7E0144345401746484AD
:100520000155456501857595013626460166567665
:10053000019686A601372747017767870138284843
:10054000018878980139294901695979019989A95E
:10055000013A2A4A016A5A7A013B2B4B016B5B7BB9
:10056000014C3C5C017C6C8C015D4D6D018D7D9D71
:10057000013E2E4E016E5E7E000000000000000075
:10058000000000000000000000000000000000006B
:1005900000000000000000000045FFFF45FFFF4590
:1005A000FFFF45FFFF00000000000000000000000A
:1005B000000000000000000000000000000000003B
:1005C000000000000000000000000000000000002B
:1005D000000000000000000000000000000000001B
:1005E0000045FFFF45FFFF45FFFF45FFFF000000FF
:1005F00000000000000000000000000000000000FB
:1006000000000000000000000000000000000000EA
:10061000000000000000001FFFFF1FFFFF00FFFFA2
:100620001FFFFF00000000000000FFFF00FFFF00B1
:10063000FFFF0000001FFFFF00000000FFFF0000A1
:1006400000000000000000000000000000000000AA
:10065000000000000000000000000000000000009A
:10066000000000000000000000000000000000008A
:10067000000000000000000000000000000000007A
:10068000000000000000000000000000000000006A
:10069000000000000000000000000000000000005A
:1006A00000000000000000000000A0FFFFA0FFFF0E
:1006B000A0FFFF000000000000A0FFFFA0FFFFA0C0
:1006C000FFFF000000000000A0FFFFA0FFFFA0FF51
:1006D000FF000000FBDD55FBDD55FBDD5500000094
:1006E000000000000000000000000000000000000A
:1006F00000000000000000000000000000000000FA
:1007000000000000000000000000000000000000E9
:1007100000000000000000000000000000000000D9
:1007200000000000000000000001010101010101C2
:100730000101020202020202020202030303030396
:100740000303030404040404040405050505050665
:100750000606060607070707070808080809090923
:10076000090A0A0A0B0B0B0C0C0C0D0D0D0E0E0ECC
:100770000F0F0F101011111112121313141415155D
:1007800016161717181819191A1A1B1B1C1D1D1ECF
:100790001E1F202021222223242425262627282923
:1007A000292A2B2C2D2D2E2F303132323334353651
:1007B0003738393A3B3C3D3E3F4041424344454651
:1007C0004748494A4C4D4E4F50515354555658592D
:1007D0005A5B5D5E5F616264656668696B6C6D6FD4
:1007E0007072737577787A7B7D7E80828385878847
:1007F0008A8C8E8F91939596989A9C9EA0A2A3A581
:10080000A7A9ABADAFB1B3B5B7BABCBEC0C2C4C681
:10081000C9CBCDCFD1D4D6D8DBDDDFE2E4E7E9EB3D
:10082000EEF0F3F5F8FAFDFF11241FBECFEFDAE08A
:10083000DEBFCDBF12E0A0E0B1E0E0E0F1E602C033
:1008400005900D92AC35B107D9F725E0ACE5B2E0E3
:1008500001C01D92AC3BB207E1F70E94261F0C9429
:100860007E300C940000E42FF0E0EE0FFF1FE45305
:10087000FE4F9081921B97FD9195292F38E1239F80
:10088000212D1124620F08952091B40530E1230F2A
:1008900008F42FEF60E1822F90E00E947C29BC01D8
:1008A00088EB9BE00E94EE2C80E090E008950F938F
:1008B0001F93CF93DF93D62F072F182FC42F822F8C
:1008C0000E94EC28EC2FF0E0EE0FFF1FE453FE4FE8
:1008D00090819058890F87FD8195880F682F2CE0B3
:1008E000629F612D11246D0F702F812FDF91CF91A9
:1008F0001F910F9108950E94AF1A08950E94521AF5
:100900000895A4E0B0E0E7E8F4E00C94032D782E1D
:100910008091080187110DC02091B005237030E04F
:100920004091070150E081E02417350719F480E079
:1009300001C081E08170809317018091B50590918D
:100940001601981739F08093160140E060E080E0CE
:100950000E947B04EFE07E125DC08CE997E20E946A
:100960007C2A8A8342C0F71508F49AC123E07216E4
:1009700009F459C0271508F4F7C031E0731609F4DB
:1009800097C0371508F0B6C080911501382F330F86
:10099000330F380F398375E0F72EF30E80E38F1590
:1009A00010F460E3F62E1091B2059091B3059A838E
:1009B0000091B105B801892F0E948629E62ED72E15
:1009C000C82E6091B405600F712F8A810E9486291C
:1009D0006A83172F082F29812F1508F4ABC031E047
:1009E0003A838FE28F1508F48EC0809115018F5FD6
:1009F000809315019A81911112C582E080931801AC
:100A00008091170181110BC5711009C583E0809396
:100A1000180105C5E71508F46BC1F7E07F12A3CFF5
:100A20008BEC97E29CCF80911501982F990F990F2D
:100A3000980F99839B5F9B83913310F0E0E3EB83E6
:100A4000E090B205D090B3052091B40550E4F52EA6
:100A50003F2D329F312D1124F32EE981FB81EF17B9
:100A600008F042C08981082F10E0F801E45DFD4FD5
:100A70009081809116018923B9F0F801EE0FFF1FD4
:100A8000E353FE4F808182958F706091B1058F9DF9
:100A9000600D11247E2D8D2D0E948629462F282F32
:100AA000672FC8010E947E0499819F5F9983D5CFEB
:100AB00080911501282F220F220F280F29832B5FE9
:100AC0002B83213310F030E33B836091B1057091AB
:100AD000B2058091B3050E948629162F072FF82EA4
:100AE000E981FB81EF1788F021E02A83F03308F4D5
:100AF0007CCF09C080911701882329F040E060E095
:100B000080E00E947B041A8270CF8981E82FF0E098
:100B1000DF01A45DBD4F8C9190911601982331F0B7
:100B20002F2D412F602FCF010E947E0499819F5F5E
:100B30009983D6CFE9818E2F90E0FC01E45DFD4FD3
:100B4000308120911601232359F030FF04C0202F5B
:100B50004A81612F03C02C2D4E2D6D2D0E947E04E5
:100B6000F981FF5FF98337CF85E078124AC0809121
:100B70001501382F330F330F380F39833B5F3B8319
:100B8000313310F080E38B830091B1051091B205F1
:100B9000F090B3056091B405669566956695809171
:100BA000A8059091A9050E947C290E94EC288058F4
:100BB00087FD8195880F282F3F2D239F212D1124FC
:100BC000822FB8010E948629162F072FF82EE9815F
:100BD000FB81EF1708F088CF8981E82FF0E0DF0173
:100BE000A45DBD4F8C9190911601982331F02F2D6B
:100BF000412F602FCF010E947E0499819F5F9983CE
:100C0000E6CF871508F449C080911501382F330FBE
:100C1000330F380F39833B5F3B83313310F080E370
:100C20008B83E090B205D090B3052091B40530E4F9
:100C3000F32E3F2D329F312D1124F32EE981FB81BC
:100C4000EF1708F051CF8981082F10E0F801E45D1B
:100C5000FD4F9081809116018923D9F0F801EE0FA4
:100C6000FF1FE453FE4F6081F69EB001112495E012
:100C7000759567959A95E1F78091B105680F7E2D7E
:100C80008D2D0E948629462F282F672FC8010E948C
:100C90007E0499819F5F9983D1CF87EF97E25FCEE2
:100CA0009BE0791208C08AE798E202C086E998E2E0
:100CB0000E941B2B56CE971568F0E9E07E1205C006
:100CC00081EB98E20E94972B4CCEE71578F38FECDE
:100CD00098E2F8CFFDE07F1203C080EC97E23FCEB0
:100CE000F71518F089EC97E23ACE87EB97E237CE0A
:100CF00027E172128DC080911501382F330F330F09
:100D0000380F3983132F1B5F113308F010E38091E4
:100D10001701811121C06091B40520E1620F08F430
:100D20006FEF8091A8059091A9050E947C296AE047
:100D300070E00E94EE2C892B41F50E940D2990E372
:100D4000899F9001112460911601832F932F990F91
:100D5000990B0E94B01D19C0F981EF2FF0E0FC83C0
:100D6000EB83E12EF12C8B819C818E159F056CF419
:100D7000609116018B819C810E94B01D2B813C816A
:100D80002F5F3F4F3C832B83EECF91E09A833CC093
:100D9000E71508F4D2C0F9E17F1609F467C0F7152A
:100DA00008F4C8C080911501E82FEE0FEE0FE80F90
:100DB000E9831E2F1B5F113308F010E380911701A8
:100DC00081119FC06091B40520E1620F08F46FEFBC
:100DD0008091A8059091A9050E947C2965E070E0AA
:100DE0000E94EE2C892B71F40E940D29F0E38F9F55
:100DF0009001112460911601832F932F990F990B65
:100E00000E948C1DF1E0FA83103308F4EECD7BCE06
:100E1000271530F133E1731203C085E598E248CF1E
:100E2000371570F081E1781203C083E599E24ACF6B
:100E3000871518F08DE897E23BCF89E698E242CF1C
:100E400095E1791203C08DE297E204C0971528F06E
:100E50008FE597E20E94C62A84CD8FEE96E2FACF04
:100E6000EBE17E1295CF83E394E079CD809115017B
:100E7000282F220F220F280F29832B5F2B8321334A
:100E800010F030E33B830091B2051091B305F09070
:100E9000B1056091B4056695669566958091A80543
:100EA0009091A9050E947C290E94EC28805887FD1A
:100EB0008195880F682F2CE0629F612D11246F0DA2
:100EC000702F812F0E948629162F072FF82EE98177
:100ED000FB81EF1708F008CE8981E82FF0E0DF01F1
:100EE000A45DBD4F8C9190911601982331F02F2D68
:100EF000412F602FCF010E947E0499819F5F9983CB
:100F0000E6CF3981232F30E03C832B83E12EF12C77
:100F1000EB81FC81EE15FF050CF074CF609116019A
:100F20008B819C810E948C1D8B819C8101969C836E
:100F30008B83EECF87E594E012CD2DE17212EEC0E7
:100F40004091F2025091F3026091F4027091F50227
:100F50008091A8059091A905A091AA05B091AB0533
:100F600084179507A607B70708F4CDCD8091170120
:100F700081110EC080911501382F330F330F380FB8
:100F80003983032F0B5F013308F45AC000E358C0C4
:100F900040E060E080E00E947B0402E612E01C82F8
:100FA0001B820E940D2981FF05C0F8011082118269
:100FB000128220C00E940D29D82E0E940D29F0E82F
:100FC0008F9FC00111247FE7790F8B819C81880F4F
:100FD000991F2B813C81820F931FFC01EE59FD4F1D
:100FE0007F016D2D8091B3050E948629F7016083F2
:100FF000718382832B813C812F5F3F4F3C832B8306
:101000000D5F1F4F2033310561F6B4CF3981832F37
:1010100090E0FC01E45DFD4F308120911601232317
:1010200061F0FC01EE0FFF1FE80FF91FEE59FD4FB5
:101030002281408161810E947E0489818F5F898342
:101040009981901718F3E1E0EA83003308F01A82DF
:10105000003308F4CACC20E010E001501109822FBF
:1010600090E080179107CCF4AC01440F551F480F56
:10107000591F4E595D4F0196FC01EE0FFF1F8E0F59
:101080009F1FFC01EE59FD4F80819181A281FA01E1
:1010900080839183A2832F5FE2CF0E940D29780184
:1010A000EE0CFF1C81FF09C00E0D1F1DF801EE594B
:1010B000FD4F10821182128218C00E940D2989836F
:1010C0000E940D29F0E88F9FC00111247FE7790F5E
:1010D0000E0D1F1D0E591D4F69818091B3050E9491
:1010E0008629F8016083718382830E944404009101
:1010F000A8051091A9052091AA053091AB05DC0146
:10110000CB01800F911FA21FB31F8093F202909317
:10111000F302A093F402B093F50267CC721608F0C4
:101120007AC080911501982F990F990F890F8B5FC5
:101130008B834091A8055091A9056091AA057091F3
:10114000AB0580915E0290915F02A0916002B09128
:10115000610284179507A607B70708F055C00E94DB
:101160000D2930E3839FC0011124092F112707FDAA
:101170001A95F801E45DFD4F808190911601982346
:1011800009F442C00E940D2981FD0EC00E940D2964
:1011900089830E940D29E0E88E9FC00111247FE71A
:1011A000790F8091B30503C080E070E019826981F6
:1011B0000E948629462F282F672FC8010E947E048F
:1011C0002091B40530E1230F08F42FEF60E1822F66
:1011D00090E00E947C29BC0184EF91E00E94EE2CFB
:1011E0008091A8059091A905A091AA05B091AB05A1
:1011F000860F971FA11DB11D80935E0290935F0221
:10120000A0936002B0936102F1E0FA832B81203356
:1012100008F4EBCB78CC3EE17312C7C08091170184
:10122000882329F040E060E080E00E947B04809108
:101230001501982F990F990F890F8B5F8983409122
:10124000A8055091A9056091AA057091AB05809100
:10125000200390912103A0912203B09123038417CE
:101260009507A607B70708F099C06091B10570917E
:10127000B2058091B3050E948629662E572E482E0E
:1012800006EF12E028E731E03C832B834CEC842E00
:1012900041E0942EAB80BC806501780132E0332EB2
:1012A000F7018081F601882369F08081242D462D85
:1012B000652D90E00E947E04F5018581242D462D48
:1012C000652D0CC0808120E040E060E090E00E944D
:1012D0007E04F501858120E040E060E090E00E941E
:1012E0007E04F701818181937F013A94FFEFCF1A49
:1012F000DF0A21E0A21AB1083110D2CFF8018281B1
:10130000EB81FC81882371F08281242D462D652D8F
:1013100090E00E947E04EB81FC818381242D462D88
:10132000652D0DC0828120E040E060E090E00E94E9
:101330007E04EB81FC81838120E040E060E090E06E
:101340000E947E040E940D29837091E009F090E0D4
:10135000F80192830D5F1F4F2B813C812A5F3F4F25
:101360003C832B838216930609F094CF0E94440499
:101370000091A8051091A9052091AA053091AB050F
:10138000DC01CB01800F911FA21FB31F80932003AC
:1013900090932103A0932203B093230331E03A8377
:1013A0008981803308F421CBAECB8FEF781231C026
:1013B0008091A8059091A905A091AA05B091AB05CF
:1013C00088279C70AA27BB272AE0B695A7959795F2
:1013D00087952A95D1F782309105A105B10571F065
:1013E00083309105A105B10569F040E00197A105A1
:1013F000B10511F060E008C064E102C044E160E0C2
:1014000080E003C044E164E184E10E947B0482E067
:10141000FECA809115018F5F80931501EECA249654
:10142000E1E10C941F2DE0EBF5E085E380838091F2
:10143000190190911A01A0911B0181839283A383CA
:101440008FE784838FEF858348E050E068E170E0A8
:10145000CF010E94662D1092AF050895809151032F
:1014600087FF11C08091E80082FD05C08091AE0524
:101470008111F8CF11C08091E8008B770BC080916B
:10148000AE05882349F08091E80080FFF8CF809175
:10149000E8008E778093E8000895982F973068F5DC
:1014A0009093E900981739F07091EC002091ED00CD
:1014B0005091F00003C0242F762F50E021FD02C090
:1014C0009F5FECCF3091EB003E7F3093EB0030918B
:1014D000ED003D7F3093ED003091EB0031603093B3
:1014E000EB007093EC002093ED005093F0002091FE
:1014F000EE0027FDE5CF80E008958F708093E9002E
:1015000081E008952091570330915803261737073B
:1015100048F06115710539F42091E8002E77209389
:10152000E80001C0B901FC0120E06115710579F105
:101530008091AE058823F1F18530F1F18091E800CA
:1015400083FD3CC08091E80082FD2EC08091E800C0
:1015500080FFEBCF2091F3008091F20090E0922B7E
:101560006115710551F08830910538F4219120936F
:10157000F100615071090196F3CF21E0089709F05D
:1015800020E08091E8008E778093E800CECF211193
:10159000CFCF0AC08091AE05882361F0853061F01D
:1015A0008091E80083FD0AC08091E80082FFF2CFBD
:1015B00080E0089582E0089583E0089581E0089531
:1015C000089580912D0308959B019091AE0594306C
:1015D000F1F48F708093E9008FEF9091E8008150D3
:1015E00095FD06C095ED9A95F1F700008111F5CFB4
:1015F0008091E80085FF0BC0BA01C90140E050E0CE
:101600000E94292A8091E8008E778093E80008954F
:1016100043E050E0BC0184E00E94E40A0895CF93C7
:10162000DF93EC0180910601811105C048E050E094
:10163000BE0181E00BC08091280387FF03C040E218
:1016400084E002C048E081E050E0BE010E94E40A6C
:1016500080E2FE01AEE2B3E001900D928A95E1F7DF
:10166000DF91CF910895AAE2B0E0E9E3FBE00C94AA
:10167000112DE1E5F3E089E593E02091F10021935C
:101680008E179F07D1F780915203833009F463C00E
:1016900030F4813071F0823009F49FC0B6C08A30D6
:1016A00009F48BC08B3009F46EC0893009F0ADC0ED
:1016B00020C080915103813A09F0A7C08091E800D1
:1016C000877F8093E8008091550390915603892B82
:1016D00021F460E28EE293E003C060E080E090E0FD
:1016E00070E00E94820A8091E8008B778093E80086
:1016F0008CC080915103813209F087C080915503DD
:1017000090915603009719F0029709F07EC08091DE
:10171000E800877F8093E8008091E80082FD05C0A3
:101720008091AE058111F8CF70C02091F3008091B7
:10173000F20090E0922B029731F48091F100813019
:1017400011F0863021F48091F10080932D03809177
:10175000E8008B7756C080915103813A09F055C05B
:101760008091550390915603892B09F04EC08091CA
:10177000E800877F8093E8008091E80080FFFCCF3D
:101780008091060139C0809151038132F1F5809139
:10179000550390915603892BC1F58091E800877F0E
:1017A0008093E8000E942E0A8091530380930601E3
:1017B00010922B030E94AD2528C0809151038132E5
:1017C00021F58091E800877F8093E8000E942E0A2F
:1017D0008091540380932C0318C080915103813A67
:1017E000A1F48091E800877F8093E8008091E80071
:1017F00080FFFCCF80912C038093F1008091E80062
:101800008E778093E8000E942E0A8091E80083FF83
:10181000DFC18091510390915203492F50E04A302B
:10182000510508F0D5C1FA01EA5AFF4F0C944A2F2E
:10183000803821F0823809F0CBC108C080914E0376
:1018400090914F03992389F082600FC080915503D6
:101850008F70873008F0BCC18093E9008091EB0065
:1018600085FB882780F91092E9009091E800977F26
:101870009093E8008093F1001092F10070C1282F3E
:101880002D7F09F0A5C1882319F0823061F0A0C135
:1018900080915303813009F09BC1933009F080E0BF
:1018A00080934F032EC08091530381112AC08091F1
:1018B00055038F702FEF280F263008F089C18093D1
:1018C000E9002091EB0020FF1CC0933021F48091AF
:1018D000EB00806214C09091EB0090619093EB005C
:1018E00021E030E0A90102C0440F551F8A95E2F7BC
:1018F0004093EA001092EA008091EB0088608093A8
:10190000EB001092E9008091E800877F8093E80067
:101910000E942E0A5DC181115BC1109153031F7794
:101920008091E3008078812B8093E3008091E80030
:10193000877F8093E8000E942E0A8091E80080FF54
:10194000FCCF8091E30080688093E300111102C016
:1019500082E001C083E08093AE053AC180588230B6
:1019600008F036C120915303309154032C3D53E0CD
:10197000350779F583E08A838AE289834FB7F89443
:10198000DE01139620E03EE051E2E32FF0E05093B9
:101990005700E49120FF03C0E295EF703F5FEF70C6
:1019A0008E2F90E0EA3010F0C79601C0C0968D935C
:1019B0009D932F5F243149F74FBF8091E800877FC7
:1019C0008093E8006AE270E0CE0101960E94820AEC
:1019D000B4C08091550390915603432F552743304F
:1019E0005105A9F068F44130510509F400C14230B5
:1019F000510509F0EDC08BE590E0E3E0F2E04BC06B
:101A00004132510529F14232510589F1E1C0C90144
:101A1000992781309105A1F058F0029709F0D8C0BC
:101A2000E0E7F2E0E4918E2F90E0E0E7F2E030C0F2
:101A3000ECEBF2E0E4918E2F90E0ECEBF2E028C0CA
:101A4000E2E9F2E0E4918E2F90E0E2E9F2E020C0DA
:101A50008330910508F0BCC0880F991FFC01EB5D35
:101A6000FE4F0190F081E02D89E090E014C08330BA
:101A7000910508F0ADC0FC01EE0FFF1FE15EFE4FC7
:101A80000190F081E02DDC01A45EBE4F8C9190E0CE
:101A9000009709F49DC02091E800277F2093E8007B
:101AA00020915703309158032817390708F4C901CA
:101AB00040E0009789F12091AE05222309F43DC052
:101AC0002530D9F12091E80023FD37C02091E800AE
:101AD00022FD2FC02091E80020FFEBCF4091F300C2
:101AE0002091F20030E0342B009759F02830310576
:101AF00040F444914093F100319601972F5F3F4F9E
:101B0000F3CF41E02830310509F040E02091E800B2
:101B10002E772093E800CDCF4111CDCF0AC0809120
:101B2000AE05882351F0853041F08091E80083FDB7
:101B300004C08091E80082FFF2CF8091E8008B77AB
:101B40008093E80045C0803809F042C08091E800E9
:101B5000877F8093E800809150038093F10080910B
:101B6000E8008E77D3CE811133C0809153039091DA
:101B700054039927029764F58091E800877F80934A
:101B8000E80010915303109350030E942E0A111184
:101B900006C08091E30087FD02C081E001C084E0BF
:101BA0008093AE0542E061EC81E00E944D0A42E282
:101BB00061EC84E00E944D0A42E261EC82E00E9406
:101BC0004D0A42E260EC83E00E944D0A8091AE052E
:101BD0008091E80083FF10C08091E800877F8093A8
:101BE000E8008091EB0080628093EB0005C082E109
:101BF00090E0EEE5F2E04FCFAA96E3E00C942D2DB5
:101C00001F920F920FB60F9211242F933F934F9371
:101C10005F936F937F938F939F93AF93BF93CF9374
:101C2000DF93EF93FF93C091E900CF708091EC00B8
:101C3000D82FD17080FDD0E81092E9008091F0009B
:101C4000877F8093F00078940E94330B1092E90014
:101C50008091F00088608093F000CD2BCF70C0930E
:101C6000E900FF91EF91DF91CF91BF91AF919F91EB
:101C70008F917F916F915F914F913F912F910F9035
:101C80000FBE0F901F901895E8EDF0E080818E7FD9
:101C900080831092E2001092DA001092E100A0EE30
:101CA000B0E08C9181608C9380818F77808319BCA8
:101CB000A7EDB0E08C918E7F8C9380818F7E8083A6
:101CC00010922A030895A0E0B0E0E9E6FEE00C944B
:101CD0000C2DC8EDD0E088818F7E8883E7EDF0E0A1
:101CE00080818160808384E082BF81E080932A03C9
:101CF00088818E7F888302EE10E0F80110821092B6
:101D0000DA0081EEC82ED12CF601108288818F77FF
:101D1000888388818068888388818F7D888319BCC7
:101D20001092AE051092500310924F0310924E0382
:101D300090EEE92EF12CF70180818B7F80838881E2
:101D40008160888342E060E080E00E944D0AF601F5
:101D500080818E7F8083F801808181608083808193
:101D600088608083F70180818E7F80838881806195
:101D70008883CDB7DEB7E8E00C94282D1F920F9230
:101D80000FB60F9211242F933F934F935F936F934E
:101D90007F938F939F93AF93BF93EF93FF93809124
:101DA000E10082FF09C08091E20082FF05C08091BE
:101DB000E1008B7F8093E1008091DA0080FF2AC0F0
:101DC0008091D80080FF26C08091DA008E7F8093BA
:101DD000DA008091D90080FF18C080E189BD82E1DE
:101DE00089BD09B400FEFDCF81E08093AE058091EE
:101DF0002A0381110FC00E94440E0E94630E80913D
:101E0000E20084608093E20005C019BC1092AE0528
:101E100010922A038091E10080FF17C08091E200B8
:101E200080FF13C08091E2008E7F8093E20080915A
:101E3000E20080618093E2008091D800806280930C
:101E4000D80019BC85E08093AE058091E10084FF45
:101E500030C08091E20084FF2CC080E189BD82E126
:101E600089BD09B400FEFDCF8091D8008F7D80939D
:101E7000D8008091E1008F7E8093E1008091E200A4
:101E80008F7E8093E2008091E20081608093E20087
:101E900080915003882311F084E007C08091E30013
:101EA00087FD02C081E001C083E08093AE05809190
:101EB000AE058091E10083FF27C08091E20083FF9F
:101EC00023C08091E100877F8093E10082E08093CE
:101ED000AE05109250038091E1008E7F8093E10067
:101EE0008091E2008E7F8093E2008091E200806129
:101EF0008093E20042E060E080E00E944D0A809121
:101F0000F00088608093F000FF91EF91BF91AF9156
:101F10009F918F917F916F915F914F913F912F9101
:101F20000F900FBE0F901F9018952091E4003091F4
:101F3000E50095E64091EC00842F817040FF23C0BE
:101F40008091E80080FD1DC08091AE05882399F046
:101F5000853099F08091EB0085FD11C04091E4003F
:101F60005091E5002417350729F3915011F09A019B
:101F7000E1CF84E0089582E0089583E0089581E050
:101F8000089580E008954091E80042FFDDCF089574
:101F900078941F920F920FB60F9211248F939F93F4
:101FA000AF93BF938091240390912503A0912603C2
:101FB000B09127030196A11DB11D80932403909336
:101FC0002503A0932603B0932703BF91AF919F9160
:101FD0008F910F900FBE0F901F9018959C014FB7D7
:101FE000F8948091240390912503A0912603B09149
:101FF00027034FBF821B930B08952FB7F89460916E
:1020000024037091250380912603909127032FBF0D
:1020100008952FB7F8948091240390912503A091FF
:102020002603B09127032FBF0895A0E2B0E0EBE1B3
:10203000F0E10C94092DFC018481882309F4DEC3AE
:102040007F0121E0408151816281738195810E94ED
:102050009C218C018091AC05882399F0F701858142
:10206000882311F086E001C087E08983F701808131
:102070008A8381818B838EEF8C83CE0101960E94AF
:10208000532AF70185810115FEE71F0759F001303A
:102090002EE7120709F440C0003298E7190709F04B
:1020A00075C05CC0882309F47DC09091EC0381E089
:1020B000890F8770987F853020F4892B8093EC03FB
:1020C00002C09093EC038091EC038770EFEF8E9F3A
:1020D000C00111249595879595958795992790939B
:1020E00089008093880090938B0080938A0090935E
:1020F0008D0080938C004091EC035091ED03609132
:10210000EE037091EF038FE090E00E94882D8091A4
:10211000EB030E946B2242C0882309F443C08091E4
:10212000EC0383FB222720F991E0922790FB83F9AF
:102130008093EC03992329F040E060E080E00E9466
:102140007B044091EC035091ED036091EE0370919C
:10215000EF038FE090E00E94882D20C0882309F4CF
:10216000EFC09091B5058091AF059F3F59F4109253
:10217000B50581608093AF0540E060E080E00E949B
:102180007B04DEC09FEF9093B50524C00034FEE7CA
:102190001F0721F4882309F4D3C054C0F7018581B7
:1021A00081115AC080912B038272F801E052F847E6
:1021B000E531F10508F0D6C0E05AFF4F0C944A2FE4
:1021C0009091B00581E089278093B00510921801A5
:1021D0008091AF0581608093AF05B2C042E85CE1B9
:1021E0006CE87CE12CC04CE85CE162E87CE127C053
:1021F0004EE65CE168E77CE122C048E75CE16EE620
:102200007CE11DC044E55CE161E67CE118C041E68B
:102210005CE164E57CE113C04AE35CE167E47CE1F6
:102220000EC047E45CE16AE37CE109C046E35AE1A1
:1022300064E47AE104C044E45AE166E37AE10E948E
:10224000851D7EC081E005C085E003C08DE001C032
:1022500082E10E94102A74C003302CE7120709F4AF
:102260005AC050F401159CE71907B1F00130ECE7B2
:102270001E0709F456C076C00B35FCE71F0709F4AA
:102280005BC00C352CE7120709F44EC00A351C4719
:1022900009F068C081E051C010922B030E94AD2567
:1022A0009FEFE4E3FCE09150E040F040E1F700C034
:1022B0000000F89481E08093E00080E28093D800F1
:1022C0001092C9008FE19EE40197F1F700C0000071
:1022D0001DBA109268001CBC10BE1FBA10927A0082
:1022E00010926E0010926F001092710010927200A6
:1022F0001092C9001092BC0014B817B81AB81DB8D3
:1023000010BA1092BC0015B818B81BB81EB811BA94
:102310000C94003F15C06FEF7FEF80E090E00E94CB
:10232000942D0E9453220CC08091290382FB8827A0
:1023300080F991E0892701C080E00E94381712C01F
:102340008091BB03877009F459C2F7018581882306
:1023500009F454C28091290382FF50C282E00E9496
:1023600021174CC2F701858100811181882349F032
:10237000C8010E94A124D82E682FC8010E941125EF
:1023800004C0C8010E94DD24D82EB8018D2D0E9402
:102390000F150E942C15D82E192FA82EF701058194
:1023A000C680C2949FE0C9228091BB03877001F16F
:1023B0000023F1F0812F807F803469F080E28D0D61
:1023C0008830B0F0812F807E803229F4F1E0FD1555
:1023D00078F4CC2069F08091290382FF09C082E063
:1023E0000E9421178091BB038770BB24B394811195
:1023F000B12C912E92948FE09822892D90E08C3010
:10240000910508F0D4C1FC01EB58FF4F0C944A2F02
:10241000812F807F1F70882311F01295107F002379
:10242000B9F0112309F4B1C180E28D0D883010F0AC
:10243000A11006C090912B03192B10932B0305C0FC
:102440009091DD03192B1093DD030E94CC169DC1E2
:102450008D2D0E94DC25112309F4A9C180E28D0D88
:10246000883088F1AA2079F110959091DD03192325
:102470001093DD032BC0812F807F1F70803211F0FD
:102480001295107F8D2DAA2029F021E0A21609F4C3
:102490004CC055C08091290382FD1BC0002369F008
:1024A000112339F090912B03192B10932B030E94C9
:1024B000CC1680E00E9435267AC180E00E94DC259F
:1024C000112309F474C1812F0E94C5160E94CC16F5
:1024D0006EC1002381F0CC20B1F181E0C81267C148
:1024E0009091DC03812F8923181709F460C1192BFF
:1024F0001093DC035CC1C1105AC1812F0E94CB250F
:102500008091DC03912F982329F0912F90958923B6
:102510008093DC0380915903912F982309F447C1DC
:10252000109581238093590342C1002329F091E043
:102530009C1508F43CC107C0C11039C115C0002367
:1025400031F0C11022C1812F0E94D22530C1CC2090
:1025500059F0893309F028C1EFEFF7EE23E0E1509D
:10256000F0402040E1F71EC1812F0E94CB251FC102
:10257000812F86958695837019F0813061F017C19F
:10258000002321F08D2D912F937002C080E090E008
:102590000E94421D12C1002321F08D2D912F9370B6
:1025A00002C080E090E00E941D1D07C1812F837052
:1025B000A9F5011100C14D2D429546954770440F74
:1025C000440F8D2D8F7090E09C01042E01C0220FCE
:1025D0000A94EAF7D4FE08C08FE090E001C0880FAB
:1025E0004A95EAF7809501C080E01695169513701C
:1025F000123069F088F49091DE03113019F0822BCB
:10260000892302C0922B892B0E948725D4C0822B5C
:102610009091DE038927F8CF822BF6CF002319F0A3
:10262000812F817001C08695882309F4C4C04D2D87
:10263000429546954770440F440F8D2D8F7090E062
:102640009C01042E01C0220F0A94EAF7D4FE08C0B0
:102650008FE090E001C0880F4A95EAF7809501C0AD
:1026600080E0169516951370123059F078F4909119
:10267000EB03113019F0822B892309C0922B892B8F
:1026800006C0822B9091EB03892701C0822B0E9408
:10269000462591C01F70002339F0812F0E947B25B1
:1026A0008D2D0E94D22587C08D2D0E94CB25812F94
:1026B0000E946E2580C08D2D92EFA91671F19A159A
:1026C00038F0E0EFAE1659F0F1EFAF1609F159C04E
:1026D00023EFA21649F194EFA916B1F052C00023DE
:1026E00071F0C11064C01F7181E090E0012E01C043
:1026F000880F0A94EAF79091EB03892720C0E1E064
:10270000EC1508F454C0EFCF8091290382FD1AC064
:10271000002329F0812F8F7127C00023D9F3812F47
:102720008F710E946E2543C0002341F01F7181E02C
:10273000012E01C0880F0A94EAF701C080E00E94D0
:10274000462535C0002399F01F71812F0E947B25FB
:102750008091290382FF07C0F8E01F9FC001112468
:1027600083608093BB03812F0E947B2520C081E082
:102770000E94211721E02C15D0F482E00E9421173D
:1027800016C0002321F0CC2029F28D2D93CECC2031
:1027900031F2893349F48FEF97EEE3E081509040B6
:1027A000E040E1F700C000008D2D0E94DC2588EF9D
:1027B000890D843010F40E94671DBB20A9F0809120
:1027C000BB0380FD11C0F70115828695869586951D
:1027D0000E947B25C7010E9415108091BB0386953E
:1027E000869586950E946E2520E0F70140815181F3
:1027F00062817381848195810E949C21A096EBE087
:102800000C94252D80E008959091280392FF10C02C
:1028100041E0282F2471243009F040E031E0282FD6
:102820002871283009F030E0431711F02CE082279E
:1028300093FF10C041E0282F2471243109F040E0BB
:1028400031E0282F2871283109F030E0431711F0CA
:102850002CE082273091290330FF10C051E0282F4F
:102860002171213009F050E041E0282F28712830F3
:1028700009F040E0541711F029E0822731FF10C021
:1028800041E0282F2171213109F040E031E0282F6B
:102890002871283109F030E0431711F029E0822730
:1028A00094FD877E08958238910569F1B0F48133F3
:1028B000910509F475C048F48932910509F467C09F
:1028C0008A32910509F471C008958533910509F4A0
:1028D00059C089339105B9F00895833E910589F176
:1028E00038F4803E9105D1F0823E910529F108959A
:1028F000863E9105C9F1873E9105D9F1843E910547
:1029000009F06CC027C02091280320FD57C021FD8D
:1029100055C02091290323FD5BC0089580912803B1
:1029200080FD48C08091290380FF48C08091280322
:1029300084FD46C083EE51C08091280382FF3CC0D5
:10294000F5CF8091280382FD37C08091290380FD57
:1029500035C0ECCF8091290381FF36C080912803D8
:1029600084FD2EC087EE39C08091280383FF2AC0E2
:10297000F5CF8091280383FD25C08091290381FD37
:1029800023C0ECCF8091280385FD22C01FC0809119
:10299000280385FD1BC08091290383FF19C00AC04D
:1029A0008091280386FD16C017C08091280386FDFC
:1029B00013C010C089E311C082EE0FC080EE0DC0BD
:1029C00080E00BC086EE09C084EE07C085E305C039
:1029D00089E203C08AE201C081E390E0089520917A
:1029E000BA039091810357E02917A9F030E0529F74
:1029F000F001539FF00D1124EE57FC4F71817613B7
:102A000006C07081781303C07581741306C02F5FF0
:102A10003F4F2770E9CF80E0089581E008957E3030
:102A2000B0F46630A0F48330A0F494E5899FF001FF
:102A3000112486E0789FE00DF11D1124E60FF11DB1
:102A4000EE0FFF1FE054FD4F85919491089580E0B3
:102A500001C081E090E008951F93CF93DF930E941F
:102A60005314EC01C11580E5D807E8F5C11590E4D1
:102A7000D90708F0A8C0C03ED10530F5CD3CD1053E
:102A800008F094C0C83AD10578F4C53AD10508F0E9
:102A900083C0C130D10509F47CC008F4F2C0C43051
:102AA000D10508F0F1C0EDC0C33CD10508F0E9C084
:102AB000C85AD0E0CC0FDD1FC25DDE4F0990D8812F
:102AC000C02DCE019464E1C0C11580E2D80708F0A2
:102AD000CBC0C11591E0D90708F06BC0C83ED10545
:102AE00008F4D2C0CEC0C03682E5D80728F5C0347D
:102AF00092E5D90708F079C0C03282E5D80708F01E
:102B00006CC0C11592E5D90708F481C04C2F4695D9
:102B1000469580E2489FA0011124C37021E030E077
:102B2000C90102C0880F991FCA95E2F7EA01C82BB4
:102B3000D92BCE019D68A9C0C03A82E5D807B8F468
:102B40008C2F8F71C03892E5D90708F07BC086952D
:102B5000869590E2899F90011124C37081E090E0F6
:102B600002C0880F991FCA95E2F79A6868C0C03CF6
:102B700082E5D80708F46DC0C03E92E5D90708F099
:102B800080C0CF71DD27DC2FCC27CE01806F906A0B
:102B90007CC081E090E079C0C55AD0E0C55DDE4FD1
:102BA0008881C82FD0E0CE0190646FC0CE019065BF
:102BB0006CC08D2F0E940414182FCE0199270E94FB
:102BC00053141F715CC0CE0199270E945314CC2767
:102BD000DF70D06A8C2B9D2B58C0CF71D0E0DC2FDA
:102BE000CC27CE01816F906A50C08C2F8F71869553
:102BF000869590E2899F90011124C37081E090E056
:102C000002C0880F991FCA95E2F79C6818C08C2FE4
:102C10008F710E94041495E0D695C7959A95E1F7B7
:102C2000CF70D0E0DC2FCC27282F30E084FF05C008
:102C300084E0220F331F8A95E1F7D069CE01822B01
:102C4000932B23C090E0D82FCC27CE01846F906ABD
:102C50001CC08C2F8F710E9404148F7190E0D82FAC
:102C6000CC27CE01906211C08D2F8F710E94041469
:102C7000182FCE0199270E9453141F719062912B37
:102C800004C080E090E001C0CE01DF91CF911F91A0
:102C90000895A8E0B0E0EFE4F6E10C94122D66EEA2
:102CA0007EEF80E090E00E94942D60E082E090E072
:102CB0000E94762D60E083E090E00E94762D1092D5
:102CC000DE0360E074E184E090E00E94942D60E017
:102CD00086E090E00E94762D6FEF87E090E00E9402
:102CE000762D40E050E0BA0188E090E00E94882D07
:102CF00060E084E290E00E94762D60E087E190E061
:102D00000E94762D60E08CE090E00E94762D60E0DD
:102D10008DE090E00E94762D19821A821B821C821F
:102D20001D821E821F82188648E050E068E170E034
:102D3000CE0101960E94662D40E050E0BA0180E28B
:102D400090E00E94882D1092EC031092ED031092F7
:102D5000EE031092EF0384E08093EC034091EC03C8
:102D60005091ED036091EE037091EF038FE090E0DE
:102D70000E94882D40E050E0BA0183E190E00E947B
:102D8000882D2896E2E00C942E2D809590912B03AF
:102D9000892380932B03089590912B038091DD0369
:102DA000982B90935A038091DC038823D9F0892BC8
:102DB00080935A0380910601882331F08091280383
:102DC00087FF02C08EE101C086E0ECE5F3E090E011
:102DD000815028F021912223D9F39F5FF9CF9111DF
:102DE0001092DC0340E250E06CEB73E08AE593E084
:102DF0000E947130892B21F180E2EAE5F3E0ACEB2F
:102E0000B3E001900D928A95E1F7E0915305F091BE
:102E100054053097A9F080910601882359F08091DC
:102E2000280387FF07C080915A0380935B0386E0E5
:102E300080935A030280F381E02D8AE593E009959F
:102E400008959091BB03809589238093BB03282F1D
:102E5000277069F4981759F09091290392FF07C0E1
:102E60008695869586950E946E251092BB030895DF
:102E70009091290392FB222720F9281779F080FBF3
:102E800092F990932903609128037091290384E0BB
:102E900090E00E94942D82E00E9421170895809175
:102EA000BA0390918103891719F08F5F8770FBCF68
:102EB0000895CF93DF938091800382958F7009F0FE
:102EC0004EC080917F03882309F449C08091BA03E2
:102ED0004091810350917B0360917A03C0917C0300
:102EE000D0917D0377E08417D1F190E0789FF001D5
:102EF000799FF00D1124DF01AE57BC4F14962C9131
:102F00001497222349F111962C911197251324C06F
:102F10002C91261321C015962C91159721111CC0B8
:102F200012962D913C9113972C1B3D0B283C31059B
:102F300098F4809180038F70806180938003E857BC
:102F4000FC4F80818F70806180838AE793E00E94CC
:102F500015100E944F1703C001968770C4CFDF91F0
:102F6000CF910895A4E1B0E0E8EBF7E10C94082DCF
:102F70008C0186E0F801DE011F9601900D928A9582
:102F8000E1F7F8018481E5809AE7892E93E0992E94
:102F900090917E03911120C0882309F463C1EE2033
:102FA00009F442C0C8010E948A25F82E8823E1F165
:102FB00087E0F801D40101900D928A95E1F78091A4
:102FC0007E03813031F480917A0390917B030E94DB
:102FD000D0240E94591748C1F801D080C180A28036
:102FE000B380F0907F0320917C0330917D03FF201C
:102FF00009F4E7C0A501421B530B483C510508F0FA
:103000009DC0882309F430C180918003282F207F40
:1030100090917B03222361F09C1509F460C0C801E4
:103020000E948A25811163C0C8010E9415101AC12F
:103030009C1113C090917A039D110FC0E1100DC037
:103040008F708061809380038AE793E00E9415105F
:1030500080918003F801868303C1E1103AC040E00B
:103060006C2D8D2D0E94EF1440E06C2D8D2D0E9453
:10307000EF14E82E8111F4C0DF86C88A8F85988905
:103080000E94D024292F22952F70243020F49F7085
:10309000223028F009C02A50223080F014C0992331
:1030A00049F0811107C013C0992321F0F8019681DE
:1030B000907F69F0805E883030F409C0803F38F03E
:1030C000815F833020F0C8010E941510EF2CFE2C88
:1030D000CBC080918003816080938003C1C09091B8
:1030E0007A039D119CCFE1109ACFF80198C0EE2091
:1030F00009F49ACF20918003822F82958F7090E0FF
:1031000002978CF080917A0390917B03998788874E
:10311000BB86AA8680917E038C871D862E87CE0172
:1031200008960E94151087E0F801AAE7B3E0019025
:103130000D928A95E1F70E94591794C090918003EF
:10314000292F207F51F48AE793E00E94151087E031
:10315000F40111928A95E9F783C0882309F484C0A9
:1031600080917B038C110CC080917A038D1108C073
:10317000E11006C0F8019683C8010E9415106AC0CC
:10318000C8010E948A25882309F44ECFEE2009F455
:103190004BCF20918003822F82958F7090E0029711
:1031A00014F280917A0390917B039A838983BC8285
:1031B000AB8280917E038D831E822F83CE01019688
:1031C000B0CFA21AB30AF8ECAF16B10408F042C0AF
:1031D000882309F447C0FE2CEE2009F425CF809106
:1031E0007B038C1129C080917A038D1125C09091A9
:1031F000800390FD18C0892F82958F70282F30E0B2
:103200002115310581F0F80196832F30310541F009
:103210008F5F982F9295907F86818F70892B868300
:10322000C8010E94151087E0F801AAE7B3E00190F9
:103230000D928A95E1F718C0C8010E948A25811174
:1032400072CF80918003816080938003C8010E94C7
:1032500015100AC087E0F40111928A95E9F704C0BD
:10326000F12C02C0FF24F3948F2D6496ECE00C94B3
:10327000242DA0E0B0E0EFE3F9E10C940C2D809157
:10328000110190911201892BA1F08091E1038F5FD0
:103290008093E10381110DC00E94132390E090936D
:1032A000120180931101892B21F40E948A230E942C
:1032B000F81D0AE515E07801D0E0C0E087E0C82EEF
:1032C000CC0E8C2F0E94FA238C2D0E94FA238C2F77
:1032D0000E945D248F73F7019081891721F080830C
:1032E000DD24D39401C0D12C8C2D0E945D248F73DA
:1032F000F7019781891719F0878381E001C080E089
:10330000D82ADD290E944E24CF5FFFEFEF1AFF0A73
:10331000C730A1F61092E603C091E503CC2309F46F
:103320007DC00E9409102091E3033091E403AC01B9
:10333000421B530B9A019093E4038093E3034F3FA6
:10334000510509F018F4452B19F102C02FEF30E0B8
:103350001092E5031092E203E0915805F0915905AF
:10336000AF01425F5F4F90E030E08081882341F001
:10337000281718F010829C2F03C0821B80833C2FDB
:103380003196E417F50789F73093E5039093E2034C
:10339000DD23B1F11092E203E0915805F091590557
:1033A0008091E6039091E503A8E6B5E0AF01425FA6
:1033B0005F4F6EE1E80128813C91321779F030814E
:1033C00031110CC060832C9398819227282F30E014
:1033D000292B81E0232B09F480E091E031961196AE
:1033E0000F5F1F4FE417F50729F78093E6039093CB
:1033F000E5038091E603CDB7DEB7E8E00C94282D15
:1034000081E09091E2039923A1F38111C3CF0E943F
:1034100009109093E4038093E303BCCFD111F7CF5D
:1034200080E0EFCFA6E0B0E0E8E1FAE10C94102DE7
:103430000E9409108C018091DF039091E00308172E
:10344000190781F019821A820E940910682F498198
:103450005A81792F80E090E00E94C1211093E0030F
:103460000093DF032696E4E00C942C2DE0EBF5E0CE
:10347000248130E1231B08F420E024838091AF05F0
:1034800081608093AF050895E0EBF5E0248130E1A1
:10349000230F08F42FEF24838091AF058160809380
:1034A000AF050895A4E0B0E0E8E5FAE10C940F2D33
:1034B0008033910508F04FC0122F042FF62EBC0167
:1034C000660F771F660F771F68547B4F44E050E00C
:1034D000CE0101960E94392D898183704A8150E086
:1034E00044525109282F30E060E9869FC001112421
:1034F000855F9B4FFC01E40FF51FE0817B816C81B0
:10350000EF110EC0FC01E70FF11DB497E081E0134D
:1035100007C0860F911DFC01B49780818117D9F0F7
:10352000E0E9E29FC001E39F900D1124855F9B4F6E
:10353000FC01E40FF51FF082FC01E70FF11DB497C9
:103540000083860F911DFC01B4971083F901E75F9A
:10355000FB4F81E080832496E5E00C942B2DFF92B5
:103560000F931F93CF93DF93182F062FF42EC0E0F5
:10357000D0E02F2D402F612FCE010E94521A2196AC
:10358000C033D105B1F7CDB7DEB7E5E00C942B2DF4
:10359000E5EFF3E06083418323E030E042E050E078
:1035A000BF01880F0E94C92C0895A0E0B0E0EBEDA8
:1035B000FAE10C940D2D262F30E0A901415B5A4F02
:1035C0007A01FA019081911107C0F7011082CDB7FD
:1035D000DEB7E7E00C94292DD82EF2E16F9FE001D1
:1035E000112400E010E0F801EC0FFD1FE55DFA4F3B
:1035F0004081602F8D2D0E94C81A0F5F1F4F02312E
:10360000110589F7E2CFCF93DF93C82F4BE06DEF21
:103610000E94C81A40E06AE08C2F0E94C81A8FE30B
:103620009CE90197F1F700C0000040E060E08C2FBA
:103630000E94C81A40E061E08C2F0E94C81A40E046
:1036400066E08C2F0E94C81A40E06DEF8C2F0E941C
:10365000C81AD0E040E06D2F8C2F0E94C81ADF5F9F
:10366000D231C1F740E06D2F8C2F0E94C81ADF5F66
:10367000D432C1F740E06D2F8C2F0E94C81ADF5F53
:10368000D43BC1F74BE06DEF8C2F0E94C81A41E08C
:103690006AE08C2F0E94C81A40E06DEF8C2F0E94C8
:1036A000C81ADF91CF9108950F931F93CF93DF93A3
:1036B000082F000FEB0114E21093F50380E1FE01E7
:1036C000A6EFB3E001900D928A95E1F723E030E098
:1036D00041E150E065EF73E0802F0E94C92C105F3C
:1036E0006096143B49F7DF91CF911F910F91089598
:1036F00080910904882329F06BE074E084E70E943C
:10370000541B1092090480910A04882329F06BE964
:1037100074E087E70E94541B10920A040895A4E005
:10372000B0E0E5E9FBE10C94062D0E94FD2B84E757
:103730000E94031B87E70E94031B08EB14E072E161
:10374000772EE8E0CE2ED12CEE24E394F12C6624E3
:10375000639444E050E0B801CE0101960E94392DF7
:103760002A8130E0C9018497AB80B12C44E2A41ACD
:10377000B108EC81F0E0B497AC0197FF02C0495F5B
:103780005F4F63E0559547956A95E1F7298123706E
:1037900030E0729EB001739E700D1124655D7A4F0A
:1037A0004B01840E911CB6010E94362FD70102C036
:1037B000AA0FBB1F8A95E2F7CD01D4019C91892BFA
:1037C0008C93C501B7FC079653E0959587955A955C
:1037D000E1F7729EA001739E500D1124455D5A4F72
:1037E0004A01880E911CC501B6010E94362FA7011F
:1037F00002C0440F551F8A95E2F7CA01D4019C917B
:10380000892B8C93CF01F7FD079643E0959587951B
:103810004A95E1F7729EA001739E500D1124455DFB
:103820005A4F5A01A80EB11CCF01B6010E94362F83
:10383000F70102C0EE0FFF1F8A95E2F7CF01D50115
:103840009C91892B8C93F901E15BFA4F60820C5FAC
:103850001F4FB5E008371B0709F07BCF60E084E716
:103860000E94D51A61E087E70E94D51A2496EEE0FF
:103870000C94222DE0EBF5E0438120E1421B08F49B
:1038800040E08181628190E00E94ED2B0895E0EBA1
:10389000F5E0438120E1420F08F44FEF818162811E
:1038A00090E00E94ED2B0895E0EBF5E0628120E1CD
:1038B000621B08F460E08181438190E00E94ED2B5F
:1038C0000895E0EBF5E0628120E1620F08F46FEF0C
:1038D0008181438190E00E94ED2B0895E0EBF5E0BB
:1038E000818190E04381628108970E94ED2B0895C9
:1038F000E0EBF5E0818190E04381628108960E94CF
:10390000ED2B08958091B00586958695815009F438
:103910008EE10E94102A08958091B00586958695C3
:103920008F5F8F3108F081E00E94102A08951F9266
:103930000F920FB60F9211248F939F93AF93BF9363
:1039400080915705811113C0809124039091250324
:10395000A0912603B09127034196A11DB11D80932C
:10396000240390932503A0932603B0932703BF91CC
:10397000AF919F918F910F900FBE0F901F90189550
:10398000209106012223C9F02091280327FF15C0AA
:10399000262F2695269526952E31C8F4FC01E20F98
:1039A000F11D677081E090E001C0880F6A95EAF729
:1039B00080959281892382830895FC010696228155
:1039C000621301C012823196E817F907C1F7089512
:1039D000209106012223C1F02091280327FF14C063
:1039E000262F2695269526952E3130F5FC01E20FDF
:1039F000F11D677081E090E001C0880F6A95EAF7D9
:103A00009281892B82830895FC0132962FEF30E05A
:103A10004191641789F02F3F19F4411101C0232F00
:103A20003F5F3630A9F72F3F39F0FC01E20FF11D5F
:103A300027FDFA95628308950895A3E0B0E0E3E2DC
:103A4000FDE10C94122D2091550530915605281753
:103A50003907A1F09093560580935505E0915305E1
:103A6000F0915405309751F024E029839B838A8399
:103A70000680F781E02DCE01019609952396E2E0BC
:103A80000C942E2DA3E0B0E0E8E4FDE10C94122D9F
:103A9000209151053091520528173907A1F09093D4
:103AA000520580935105E0915305F09154053097EC
:103AB00051F023E029839B838A830680F781E02DE0
:103AC000CE01019609952396E2E00C942E2DE0910B
:103AD0005305F0915405309729F00190F081E02DC5
:103AE0000995089580E00895A0E2B0E0EAE7FDE1DD
:103AF0000C94122D9FEF99838A83CE0101960E9428
:103B0000532AA096E2E00C942E2D882311F0FA019E
:103B100001C0FB01099508951F93CF93DF93FC012A
:103B2000E45DFD4F20816223B9F0EC010E940D2974
:103B3000182F0E940D2920E8829FC00111247FE7E1
:103B4000790F612F8091B3050E948629462F282F77
:103B5000672FCE010E947E04DF91CF911F910895BF
:103B6000A0E0B0E0E6EBFDE10C940D2DEC01FC01D2
:103B7000E45DFD4F9081692349F1D090B205009139
:103B8000B3051091B105E12EF12C0E940D29282FCB
:103B9000C7018C549F4F68E671E00E94362F8E1942
:103BA0009F0997FD03969595879595958795237021
:103BB000612F289F600D11247D2D802F0E94862962
:103BC000462F282F672FCE010E947E04CDB7DEB787
:103BD000E7E00C94292D8091B005837011F41092C8
:103BE00018018091B0058C7F81608093B0050895A5
:103BF0000E948F1B80E090E00E94602D863E9E4FC9
:103C000021F00E9449160E94130A81E08093AF05BB
:103C100048E050E068E170E080EB95E00E94422DC2
:103C20001092AF058091B0058C7F11F40E94130AA9
:103C300008958F929F92AF92BF92CF92DF92EF92B0
:103C4000FF92CF93C090E703D090E803E090E903A0
:103C5000F090EA038FB7F8948090240390902503A6
:103C6000A0902603B09027038FBF0E94FD0FAB01E9
:103C7000BC014093E7035093E8036093E90370931A
:103C8000EA038091F0039091F103A091F203B091C7
:103C9000F303880D991DAA1DBB1D8C199D09AE0942
:103CA000BF098093F0039093F103A093F203B093C4
:103CB000F3032091F403211109C021E0813C9742D4
:103CC000A940B10508F420E0822F01C081E080FD09
:103CD00008C0C091B0058C2F837019F0C695C695A9
:103CE00001C0C0E0809118018130A1F038F082302D
:103CF00009F46AC0833009F474C09EC010921501A3
:103D00004093A8055093A9056093AA057093AB054D
:103D100081E064C08C2F0E948104CC2309F48CC004
:103D2000809115018A3009F087C08091EC0383FDF2
:103D300083C08091EB0390E0A0E0B0E0AC01BD0156
:103D400034E076956795579547953A95D1F74115A3
:103D500051056105710521F4AC01BD0180E001C090
:103D600084E06A017B0122E0F694E794D794C7943B
:103D70002A95D1F7C114D104E104F10419F08E5F42
:103D8000B701A6017695679557954795452B462B24
:103D9000472B09F08F5F813049F028F0823059F4C9
:103DA00082E090E005C080E090E002C081E090E019
:103DB0000E94952241C08091B50581113DC040E02F
:103DC00060E00E947B0438C0C09308018091B00578
:103DD0008370809307010E94781B83E08093180111
:103DE0002BC08091AF05882351F048E050E068E196
:103DF00070E080EB95E00E94662D1092AF05409137
:103E0000A8055091A9056091AA057091AB052FB73F
:103E1000F8948091240390912503A0912603B091FA
:103E200027032FBF841B950BA60BB70B4A97A10541
:103E3000B10510F010921801CF91FF90EF90DF9034
:103E4000CF90BF90AF909F908F900895A6E4B0E080
:103E5000ECE2FFE10C94062D85B7806885BF85B73D
:103E6000806885BF84B7877F84BF0FB6F894A89514
:103E700080916000886180936000109260000FBEA6
:103E800090E080E80FB6F894809361009093610011
:103E90000FBE82E094E190935D0280935C020E94E9
:103EA000440E0E94630E8091E20084608093E200E1
:103EB00078948091AE058823A1F01091E9001F70DD
:103EC0009091EC00892F817090FD80E8182B109262
:103ED000E9008091E80083FD0E94330B1F7010936E
:103EE000E90082E084BD93E095BD9AEF97BD809391
:103EF0006E000E94132390E09093120180931101B1
:103F00000E944E240E949424EAE5F5E0A8E6B5E07C
:103F100011921D9225E0E836F207D1F78EE090E08D
:103F20000E94502F8093580590935905FC010E96DE
:103F30001192E817F907E1F789EA8093800089E098
:103F40008093810024982C983F988AB18F7C8AB9FD
:103F50006E98479A8BB180638BB9769A8FE090E028
:103F60000E945A2D6093EC037093ED038093EE034F
:103F70009093EF0367708FEF689FB00111247595E0
:103F8000679575956795772770938900609388008A
:103F900070938B0060938A0070938D0060938C0007
:103FA0000E948A2380E090E00E94602D863E9E4F12
:103FB00011F00E94491682E090E00E94522D8093F9
:103FC000760584E090E00E94602D90932903809311
:103FD000280383E090E00E94522D0E948725809163
:103FE000EB030E946B220E94F81D0E94EB1D0E94B1
:103FF000EB1D8091AF0581608093AF0589E091E072
:10400000909354058093530508E110E08091AE052C
:10401000853009F076C030E4C32E46E7E42E45E053
:10402000F42EBB24B39453E0A52E60E1D62E8091EC
:10403000AE05853009F05DC08091AE05843009F48D
:1040400036C00E94191E8091F40381110DC00E9498
:104050008104109208018091B0058370809307015C
:104060000E94781BA0921801B092F4031092570599
:104070000FB6F894A895009360000FBEC092600040
:1040800083B7817F846083BF83B7816083BF789467
:10409000889583B78E7F83BF0FB6F894A8958091DB
:1040A0006000886180936000109260000FBE809174
:1040B0004F03882309F4BBCF0E94132390E0909311
:1040C0001201809311010E944E240E949424E8E67C
:1040D000F5E01192EE16FF06E1F70E943919E8E6C5
:1040E000F5E081918111FBC025E0E637F207C9F7C1
:1040F0009ECF10922B030E94AD250E94671D109247
:10410000F4030E94391927E7C22E25E0D22EA8E633
:10411000B5E0F60191918D91892795E0E538F90791
:1041200019F08823B9F305C0811103C00E94121A47
:1041300055C098E6892E95E0992EF12CF4017190E6
:104140004F01F601A080A72409F43FC0E12CBB2455
:10415000B394662463948A2D8B2181F12296EFAE6D
:1041600022972396FFAE23970E94091025969FAFB2
:104170008EAF259726966FAE269791E08B2D8721DF
:1041800009F490E027969FAF279722964FAD22978C
:1041900023965FAD239724966FAD249725967FAD28
:1041A000259726968FAD26970E94C1211092F00385
:1041B0001092F1031092F2031092F303E394BB0CFC
:1041C000F6E0EF12C8CFF6017082F394FFEFCF1A3A
:1041D000DF0A2EE0F212B2CF0E94FD0F0E94191EDC
:1041E0000E94671D90918505891721F080938505B0
:1041F0000E94FD0F8091AE05843009F007CF83E067
:104200008093E9008091E80082FF00CF8091E80070
:1042100085FF24C00E94950F81111EC080E2E82E08
:10422000F12C6E0181E2C80ED11C09C08091F10011
:10423000F60181936F01F1E0EF1AF10869F08091C6
:10424000E80085FDF3CF8091E8008B778093E8004C
:104250000E94950F882399F391E001C090E080912E
:10426000E8008B778093E800992309F4CFCEE9A189
:104270008E2F90E08930910570F5FC01EF57FF4FCC
:104280000C944A2F19828CE0E4E6F1E0DE011296EC
:1042900001900D928A95E1F78EEF8D8707C081E03E
:1042A0008093AC0584E089838EEF8A83CE010196EA
:1042B0000E94532AABCE8091AC05882309F4A6CE88
:1042C00080E00E9446258AA10E947B259FCE85E042
:1042D00003C084E001C08FEF0E94741D97CED9BC4B
:1042E00082E189BD09B400FEFDCF8091D8008F7DA9
:1042F0008093D8008091E00082608093E0008091FC
:10430000E00081FDFCCF10922B030E94AD258FCEE3
:10431000982F92959F7019F0892F24E001C020E01A
:10432000982F9695969511F02E5F892F982F969538
:1043300009F02F5F822F0895A6E0B0E0E2EAF1E2F3
:104340000C94112D49835A8349815A81992361F034
:10435000222351F0CA010E94A124182F682F8981BD
:104360009A810E94112504C0CA010E94DD24182FE1
:1043700069817A81812F0E940F152696E3E00C94C3
:104380002D2DABE1B0E0E7ECF1E20C94102D4E8B5B
:104390005F8B688F798F8A8F9B8F192F9111109265
:1043A000DD03DE011F9687E0FD0111928A95E9F792
:1043B00086E0FE01769601900D928A95E1F70A8DCE
:1043C000002341F021E04F85588969897A89C80125
:1043D0000E949C210B8B1C8B87E0FE013F96DE0127
:1043E000189601900D928A95E1F7CE0108960E94E9
:1043F000B21781112CC087E0FE013896DE011196BC
:1044000001900D928A95E1F76C85662301F1209168
:10441000810330E0C9010196877099274091BA0362
:1044200050E08417950761F16D8397E0929FD0016A
:10443000939FB00D1124AE57BC4FFE0131960190F1
:104440000D929A95E1F7809381030E944F1717E030
:104450008091BA0390918103891709F1189FC001D7
:1044600011248E579C4F0E94B2178823C1F080916F
:10447000BA0390E00196877099278093BA03E8CF3A
:1044800010922B030E94AD25109281031092BA0363
:10449000EAE7F3E087E0DF011D928A95E9F76B9682
:1044A000E4E00C942C2D10922B030E94AD252FEFED
:1044B00084E39CE0215080409040E1F700C0000080
:1044C0009AE088E10FB6F894A895809360000FBE3B
:1044D00090936000FFCFCF93C82F0E9488215698F9
:1044E0005E9825982D9826982E9827982F9890E0DA
:1044F000FC013197E730F105A8F4E657FF4F0C9423
:104500004A2F259A2D9A0EC0259A2D9A269A2E9AD0
:1045100009C0259A2D9A04C0259A2D9A269A2E9A7A
:10452000279A2F9A8C2FCF910895A0E0B0E0EBE965
:10453000F2E20C94032D20E9289F7001299FF00CD2
:104540001124C0E0D0E000E010E067018FEFC81A4E
:10455000D80A570182E0A80EB11CF701EC0FFD1F2D
:10456000E858FA4F6491F601EC0FFD1FE858FA4F36
:104570007491F501EC0FFD1FE858FA4F8491611119
:1045800007C0711105C0811103C020E040E03CC0AC
:104590000E948629962E372E882E6091B30570E0F2
:1045A00080E090E00E943B2E20E030E04FE753E4B3
:1045B0000E949A2D2B013C01682D70E080E090E074
:1045C0000E943D2EA30192010E94C92E0E940C2E32
:1045D000862E692D70E080E090E00E943D2EA301C0
:1045E00092010E94C92E0E940C2E962E632D70E01F
:1045F00080E090E00E943D2EA30192010E94C92E0E
:104600000E940C2E282D492DC8010E947E040F5FA8
:104610001F4F2396C039D10509F09FCFCDB7DEB724
:10462000E1E10C941F2D80E290E0909312018093C1
:1046300011018091860581110EC00E94FD2B81E041
:10464000809386052FEF83ED90E3215080409040CA
:10465000E1F700C0000060E570E080E40E94032CF8
:104660009093120180931101892B09F04EC060E5EF
:1046700070E080E00E94762C9093120180931101EB
:10468000892B09F042C060E570E080E00E94762C42
:104690009093120180931101892BB9F560E570E0C8
:1046A0008FE30E94762C9093120180931101892B45
:1046B00061F50E94EA2C60E570E080E40E94032C22
:1046C0009093120180931101892BF9F460E570E059
:1046D0008CE00E94762C9093120180931101892B1B
:1046E000A1F460E570E080E00E94762C90931201C6
:1046F00080931101892B49F460E570E08FE30E94FB
:10470000762C90931201809311010E94EA2C8091E3
:1047100011010895CF93DF9356985E9825982D98B0
:1047200026982E9827982F98C8E8D0E08FEF90E031
:1047300099838883AAE8B0E011969C938E93ECE865
:10474000F0E091838083259A2D9A2FEF80E792E005
:10475000215080409040E1F700C00000269A2E9A38
:104760002FEF80E792E0215080409040E1F700C0B9
:104770000000279A2F9A2FEF80E792E02150804087
:104780009040E1F700C0000025982D982FEF80E7BA
:1047900092E0215080409040E1F700C00000269850
:1047A0002E982FEF80E792E0215080409040E1F773
:1047B00000C0000027982F988091EC0387702FEF9E
:1047C000829FC00111249595879595958795992786
:1047D0009983888311969C938E93918380835698B6
:1047E0005E9825982D9826982E9827982F98DF91D7
:1047F000CF910895CF93E82F873080F580911101F4
:1048000090911201892B09F047C0CE2F60E570E02E
:1048100080E40E94032C9093120180931101892B54
:10482000D1F460E570E082E10E94762C9093120151
:1048300080931101892B79F481E090E001C0880F09
:10484000CA95EAF760E570E080950E94762C909317
:104850001201809311010E94EA2C1EC090E0FC011D
:104860003797E730F105C0F4EF56FF4F0C944A2F0D
:10487000209A289811C0219A29980EC0229A2A9825
:104880000BC0239A2B9808C0529A5A9805C0539A85
:104890005B9802C03E9A4698CF9108952098289838
:1048A0002198299822982A9823982B9852985A98B8
:1048B00053985B983E9846980895CF93873040F57B
:1048C0008091110190911201892B59F560E570E0FA
:1048D00081E40E94032C9093120180931101892B93
:1048E00011F0C0E011C080E590E00E94A52C97FF78
:1048F00005C09093120180931101F3CFC82FC0958A
:1049000010921201109211010E94EA2C8C2F0AC001
:104910009FB18FB1807F869586959370892B809506
:1049200001C080E0CF9108958098889A8198899AF3
:1049300084988C9A85988D9A86988E9A87988F9A63
:104940000895CF92DF92FF920F931F93CF93DF933F
:104950006C010091EB038091DE03082BC7E0D0E0EF
:1049600010E0C8010C2E02C0959587950A94E2F7D5
:1049700080FD04C02197A8F7F12C09C0FC2EB601D8
:104980008C2F0E940F150E942C15019799F38F2DE3
:10499000DF91CF911F910F91FF90DF90CF900895FD
:1049A000CF93DF93EC010E94A124BE010E940F155A
:1049B0000E942C15DF91CF910895292F9E3078F514
:1049C000863068F590E036E0239F800D911D11241C
:1049D000682F677023E0969587952A95E1F7FC018B
:1049E000EE0FFF1FE80FF91FE957FA4F40E050E0C4
:1049F00080E0219130E0062E02C0369527950A947A
:104A0000E2F721703327042E01C0220F0A94EAF73F
:104A1000822B4F5F5F4F4330510559F7089580E077
:104A20000895292F9E3088F5863078F590E036E09D
:104A3000239F800D911D1124282F277051E001C064
:104A4000550F2A95EAF723E0969587952A95E1F781
:104A5000FC01EE0FFF1FE80FF91FE957FA4F20E0A6
:104A600030E070E04081CB01022E02C09695879520
:104A70000A94E2F7817081958427852384278193A6
:104A80002F5F3F4F2330310569F70895A0E2B0E072
:104A9000ECE4F5E20C94112D0E946B22182F80910A
:104AA000AC058823A9F02FEF80E792E021508040E9
:104AB0009040E1F700C0000085E08983812F0E94CB
:104AC00088218A838EEF8B83CE0101960E94532A20
:104AD0001093EB03A096E3E00C942D2D21E030E041
:104AE00001C0220F8A95EAF720958091EB0382237B
:104AF0000E944625089521E030E001C0220F8A95EA
:104B0000EAF78091EB03822B0E944625089580935B
:104B1000DE030895FC0124812223D9F08081918154
:104B20000E94D02492959F70963079F010F49250A4
:104B300001C09A50923068F4803F69F018F4883EC2
:104B400040F409C0843F29F406C0883E20F0813F2C
:104B500011F080E0089581E0089580910601882396
:104B600031F08091280387FF02C08EE101C086E00A
:104B7000ECE5F3E0DF011D928A95E9F780E090E033
:104B80000E94421D80E090E00E941D1D1092DD03F6
:104B90000E94CC160895882321F00E94C5160E9419
:104BA000CC160895882339F090912B03892B80939C
:104BB0002B030E94CC160895882309F455C0682F52
:104BC000823869F40E94671D81FF4EC069E38AE55F
:104BD00093E00E94E81C0E94CC1669E30EC0833863
:104BE00099F40E94671D80FF3FC063E58AE593E06A
:104BF0000E94E81C0E94CC1663E58AE593E00E94BF
:104C0000C01C0E94CC160895843869F40E94671D68
:104C100082FF2AC067E48AE593E00E94E81C0E94B4
:104C2000CC1667E4EACF8CEF860F813A30F380E24E
:104C3000860F883048F4677081E001C0880F6A955C
:104C4000EAF70E94C516DDCF8BE5860F833028F486
:104C500080E090E00E94421D0895685A6B3120F474
:104C600080E090E00E941D1D0895CF93882309F4F1
:104C7000B4C0C82F8238B1F40E94671D81FDADC059
:104C800069E38AE593E00E94E81C0E94CC162FEFAE
:104C900087EE93E0215080409040E1F700C0000093
:104CA00069E317C08338E1F40E94671D80FD95C059
:104CB00063E58AE593E00E94E81C0E94CC162FEF82
:104CC00081EE94E0215080409040E1F700C0000068
:104CD00063E58AE593E00E94C01C0E94CC167DC06B
:104CE0008438B1F40E94671D82FD77C067E48AE5CD
:104CF00093E00E94E81C0E94CC162FEF81EE94E016
:104D0000215080409040E1F700C0000067E4E1CF0F
:104D10008CEF8C0F813AB8F5809106018823E1F081
:104D20008091280387FF18C0EC2FE695E695E6955D
:104D3000F0E0E65AFC4F8281282F30E04C2F47707C
:104D400081E090E002C0880F991F4A95E2F7822324
:104D50009323892B59F411C0ECE5F3E08191C81736
:104D600029F023E0E236F207C9F707C06C2F8AE585
:104D700093E00E94C01C0E94CC166C2F8AE593E041
:104D80000E94E81CAACF80E28C0F883068F4C770BC
:104D900081E090E001C0880FCA95EAF790912B035B
:104DA000892B80932B0399CFEBE5EC0FE33040F494
:104DB000F0E0E55DFE4F808190E00E94421D0DC055
:104DC000C85ACB3150F4EC2FF0E0EE0FFF1FE25D3C
:104DD000FE4F808191810E941D1DCF9108950F93F8
:104DE0001F9310E0F801EE0FFF1FE453FE4F908178
:104DF000905797FD9195000F111FF801E353FE4F57
:104E0000E081F0E0B097DF01AA0FBB1F8D010E0F0C
:104E10001F1F2003D001219FB00D1124E8E3F0E013
:104E2000E91BF10997FDF3959F01220F331F8901BB
:104E30000E0F1F1F40039001419F300D11242A0FB8
:104E40003B1F37FF02C021583F4F220F232F221F45
:104E5000330B620F1F910F9108950F931F93522FE1
:104E600010E0F801EE0FFF1FE353FE4FE081F0E08A
:104E7000B097EE0FFF1F9F015203D001539FB00D5B
:104E80001124000F111FF801E453FE4F008110E0C0
:104E900000571109000F111F40039001419F300D71
:104EA00011242A0F3B1F37FF02C021583F4F220F0A
:104EB000232F221F330B620F1F910F9108950F9321
:104EC0001F93522F10E0F801EE0FFF1FE353FE4F28
:104ED000E081F0E0B0979F015203D001539FB00DE5
:104EE0001124000F111FF801E453FE4F008110E060
:104EF0000057110940039001419F300D11242A0FE2
:104F00003B1F37FF02C021583F4F220F232F221F84
:104F1000330B620F1F910F910895EF920F931F9320
:104F200093E0099F80011124159507956E2D600F60
:104F30001F910F91EF900895A22F50E0FA01EE0F0C
:104F4000FF1FE353FE4F9081905297FD9195440FC0
:104F5000551FFA01E453FE4F3081232F30E02A1B06
:104F60003109290F311D97FD3A95620F0895E42FFD
:104F7000F0E0EE0FFF1FE353FE4F6081621B0895C8
:104F8000E42FF0E0EE0FFF1FE453FE4F6081621B41
:104F90000895622F0895E42FF0E0EE0FFF1FE45311
:104FA000FE4F408134EE439F412D1124E82FF0E065
:104FB00050E0445E5F4FDA01A21BB1099D01B7FFCB
:104FC00003C031952195310993E0220F331F9A9543
:104FD000E1F7AF01421B530B9A0157FF02C020E0DB
:104FE00030E0582F259F212D1124822F0895E42F82
:104FF000F0E0EE0FFF1FE453FE4F408134EE439F7D
:10500000412D1124E72FF0E050E0445E5F4FDA01BC
:10501000A21BB1099D01B7FF03C03195219531094C
:1050200093E0220F331F9A95E1F7AF01421B530B18
:105030009A0157FF02C020E030E0279F212D112464
:10504000722F0895FC019B01009721F477FF2BC07C
:1050500080E80895AC0197FF04C044275527481BFA
:10506000590BB901640F751F37FD0CC0241B350B9C
:10507000C901A5E0880F991FAA95E1F70E94362F74
:1050800080E20CC0CB0165E0880F991F6A95E1F7BB
:10509000BA01621B730B0E94362F80E6861BF7FF56
:1050A00003C08195089580E00895EF920F93CF9308
:1050B000DF93D72FC82FC9010E19BA010E942228E9
:1050C000602F681B7D2F8C2FDF91CF910F91EF9078
:1050D00008950F93CF93DF93D72FC82FC901BA013B
:1050E0000E942228682F600F7D2F8C2FDF91CF9197
:1050F0000F910895EF920F931F93CF93DF93D62FC5
:10510000C72F182FC9010E19010FBA010E942228BA
:10511000081B202F219F212D1124822F6D2F7C2FE2
:10512000DF91CF911F910F91EF900895EF920F9320
:105130001F93CF93DF93D62F172FC82FC9010E19B6
:10514000070FBA010E942228702F781B719F712DC2
:1051500011246D2F8C2FDF91CF911F910F91EF9024
:105160000895FF920F931F93CF93DF93F62ED72FBF
:10517000182FC901C12FC01BBA010E942228982FE5
:10518000990F890FC81B2C2F219F212D1124822FAD
:105190006F2D7D2FCDB7DEB7E5E00C942B2DFF9260
:1051A0000F931F93CF93DF93F62E172FD82FC9019C
:1051B000C72FC01BBA010E942228982F990F890F70
:1051C0007C2F781B719F712D11246F2D8D2FCDB7E2
:1051D000DEB7E5E00C942B2D482F982F46FD9095D7
:1051E000E92FEF739F7046FD9F5FE295EF70EE0F22
:1051F000F0E0E059FE4F2181299F802D212D1124BF
:1052000082958F702295207F822B3081982F930F6B
:10521000892F47FD81958058089540911301509141
:10522000140125E038E0429FC001439F900D529F3A
:10523000900D1124875E994C909314018093130173
:10524000890F0895BC018230910508F40895613EEC
:105250008EE1780748F49B0195E0369527959A955D
:10526000E1F748E0420F01C04FEF91E0242F30E01A
:10527000290F311D35952795229FF001239FF00DB1
:10528000F00D11246E177F0718F44FEF420F04C082
:105290002F3F39F091E0920F491740F78FEF890FB8
:1052A00008958FEF08950F93CF93DF93D72FC82FD3
:1052B00047FD4195E8E3F0E0CF01841B910947FDEC
:1052C0009395889FB001899F700D700D1124229FC6
:1052D000C001239F900D900D1124860F971F0E94EF
:1052E0002229682F660F860F682F600F7D2F8C2F65
:1052F000DF91CF910F91089520E030E0869F212D1E
:10530000969F200D311D1124C9010895A0E0B0E041
:10531000ECE8F9E20C940C2DF62E472FE82FF0E084
:10532000711106C0E85DF84F8491782F682F73C023
:10533000272F30E0E85DF84FE491FE2F0E2F10E0AC
:1053400056E0659FC0011124CFEFD0E0BE010E945E
:10535000EE2C5BEA5603C001579F900D11248F0D70
:10536000911D8F0D911D982F990F980F7E01E21AB4
:10537000F30AE09ED001E19EB00DF09EB00D112425
:105380008B2F499FA0011124452F55277E01E41A38
:10539000F50AE09EA001E19E500DF09E500D1124F3
:1053A0006E01C91AD108C29E7001C39EF00CD29E34
:1053B000F00C11242F2D3327C21BD30BC09F90015B
:1053C000C19F300DD09F300D1124932F6230710595
:1053D00091F048F461157105E1F061307105B9F49F
:1053E0009E2FE52F16C06430710569F040F06630DD
:1053F000710579F00CC09E2FEB2F832F0AC0EB2F85
:105400008F2F952F06C09B2F8E2FE32F02C09B2F2F
:10541000852F7E2F692FCDB7DEB7E8E00C94282DBD
:105420009091B0059370A1F0811102C0946007C003
:105430008F3110F0986703C0880F880F982B9093D6
:10544000B005109218018091AF0581608093AF057F
:105450000895EF92FF920F931F93CF93DF937C01F8
:105460008B010E94950F811119C0E70101151105EB
:10547000A1F08091E80085FD0AC08091E8008E7758
:105480008093E8000E94950F882381F307C08991DB
:105490008093F10001501109E9CF80E0CDB7DEB76C
:1054A000E6E00C942A2DCF932091AE05243011F51F
:1054B000C091E900CF703091EC00232F217030FDB6
:1054C00020E8C22B22E02093E9002091E80020FF91
:1054D0000EC040E050E060E270E00E94292A811195
:1054E0001092AC058091E8008E778093E800CF7031
:1054F000C093E900CF910895A0E0B0E0E2E8FAE2BD
:105500000C940D2D8C0180911501C82FCC0FCC0F60
:10551000C80FD5E0DC0FD13308F0D0E36091B405BB
:105520006695669521E0620F08F46FEF8091A805FB
:105530009091A9050E947C29D82ECD17F0F4EC2E6D
:10554000F12CF701E45DFD4F9081809116018923D4
:1055500091F06091B1057091B2058091B3052D2D48
:105560004C2FF80109950E948629462F282F672F76
:10557000C7010E947E04CF5FE0CF81E0D03308F006
:1055800080E0CDB7DEB7E7E00C94292DA0E0B0E0D5
:10559000ECECFAE20C94092D6C0180911501C82FF6
:1055A000CC0FCC0FC80F15E01C0F113308F010E31F
:1055B0006091B405669566958091A8059091A905BE
:1055C0000E947C29D82F80E48D0F0E94EC2890E85F
:1055D000F92EF80E8D2F0E94EC2820E8922E980EBE
:1055E000C11700F5AC2EB12CF501E45DFD4F9081A3
:1055F000809116018923A1F06091B1057091B205E7
:105600008091B305ED2E0C2F292D4F2DF601099514
:105610000E948629462F282F672FC5010E947E04ED
:10562000CF5FDECF81E0103308F080E0CDB7DEB78A
:10563000EBE00C94252D6F927F928F929F92AF9208
:10564000BF92CF92DF92EF920F931F93CF93DF938E
:105650003C0180911501C82FCC0FCC0FC80FD5E0AD
:10566000DC0FD13308F0D0E36091B40566958091EA
:10567000A8059091A9050E947C29182FCD1708F044
:1056800044C08C2E912CF401E45DFD4F90818091FB
:1056900016018923C1F1F401EE0FFF1FE453FE4F01
:1056A000C080D12C80E7C81AD108F401EE0FFF1F8B
:1056B000E353FE4FA080B12CE0E2AE1AB108CC9CBF
:1056C0009001CD9C300D300D1124AA9CC001AB9CE3
:1056D000900D900D1124820F931F0E942229082FF4
:1056E0006091B1057091B2058091B305E12E9501ED
:1056F000A601F30109950E948629462F282F672FBE
:10570000C4010E947E04CF5FB9CF81E0D03308F09E
:1057100080E0DF91CF911F910F91EF90DF90CF90BC
:10572000BF90AF909F908F907F906F900895A0E072
:10573000B0E0EDE9FBE20C940C2D6C0180911501B9
:10574000C82FCC0FCC0FC80FD5E0DC0FD13308F039
:10575000D0E36091B40566958091A8059091A90564
:105760000E947C29182FCD1778F5EC2EF12CF7012B
:10577000E45DFD4F908180911601892319F1F701B5
:10578000EE0FFF1FE353FE4F208130E0205231091E
:10579000F701EE0FFF1FE453FE4F408150E04057EA
:1057A00051096091B1057091B2058091B305012F47
:1057B000F60109950E948629462F282F672FC701D9
:1057C0000E947E04CF5FCFCF81E0D03308F080E02D
:1057D000CDB7DEB7E8E00C94282D9091B00593701A
:1057E00059F08093B1056093B2054093B305809161
:1057F000AF0581608093AF0508951092B9008CE0E9
:105800008093B8000895A0E0B0E0E9E0FCE20C94D9
:10581000092DB82EEB010E9409106C01C431D1058D
:1058200058F0CF3F8FEFD80759F0CE0164E170E018
:105830000E94EE2C7B0107C0EE24E394F12C03C000
:1058400025E0E22EF12C84E8A82E94EA992E1092FD
:10585000BC009092BC000E9409108C018091BC0099
:1058600087FD07C0C8010E94EE0FE816F906B0F7E1
:1058700029C08091B900887F883041F08091B900BB
:10588000887F803119F00FEF1FEF1EC0B092BB0070
:10589000A092BC000E9409108C018091BC0087FD81
:1058A00007C0C8010E94EE0FE816F906B0F70AC05B
:1058B0008091B900887F883111F0803421F700E0B1
:1058C00010E00EC00EEF1FEFCF3F8FEFD80709F4A7
:1058D000BECFC6010E94EE0FC817D90708F0B7CF98
:1058E000C801CDB7DEB7EBE00C94252D0F931F93C5
:1058F000CF93DF93EB018093BB0084E88093BC00DF
:105900000E9409108C018091BC0087FD0DC0CF3F23
:105910008FEFD807C1F3C8010E94EE0FC817D9074F
:1059200090F78EEF9FEF0CC02091B900287F81E0A7
:1059300090E0283211F480E090E0919581959109F2
:10594000DF91CF911F910F9108950F931F93CF93E4
:10595000DF93EC0184E88093BC000E9409108C0165
:105960008091BC0087FD0DC0CF3F8FEFD807C1F3FA
:10597000C8010E94EE0FC817D90790F78EEF9FEF6E
:1059800003C08091BB0090E0DF91CF911F910F91F8
:105990000895A0E0B0E0EFECFCE20C940C2D6B015C
:1059A0008A017901B9010E94032CE6010C0D1D1D2D
:1059B000C017D10741F424E92093BC00CDB7DEB76E
:1059C000E8E00C94282D97FDF6CFB70189910E944D
:1059D000762CEECF84E98093BC000895AA1BBB1BF4
:1059E00051E107C0AA1FBB1FA617B70710F0A61BDF
:1059F000B70B881F991F5A95A9F780959095BC0100
:105A0000CD0108952F923F924F925F926F927F92B5
:105A10008F929F92AF92BF92CF92DF92EF92FF92BE
:105A20000F931F93CF93DF93CDB7DEB7CA1BDB0B6A
:105A30000FB6F894DEBF0FBECDBF09942A8839880F
:105A400048885F846E847D848C849B84AA84B98416
:105A5000C884DF80EE80FD800C811B81AA81B98122
:105A6000CE0FD11D0FB6F894DEBF0FBECDBFED0136
:105A70000895FB01DC0102C005900D924150504099
:105A8000D8F70895DC01CB01FC01F999FECF06C0DF
:105A9000F2BDE1BDF89A319600B40D9241505040EC
:105AA000B8F70895F999FECF92BD81BDF89A99276C
:105AB00080B50895A6E1B0E044E050E00C94442D98
:105AC000A8E1B0E042E050E00C94442DDC01A40FCA
:105AD000B51F4150504048F0CB01840F951F2E91C7
